:100000000C9434000C9451000C9451000C94510049
:100010000C9451000C9451000C9451000C9451001C
:100020000C9451000C9451000C9451000C9451000C
:100030000C9451000C9451000C9451000C945100FC
:100040000C9477000C9451000C9451000C945100C6
:100050000C9451000C9451000C9451000C945100DC
:100060000C9451000C94510011241FBECFEFD8E026
:10007000DEBFCDBF11E0A0E0B1E0E4E3F9E002C0F3
:1000800005900D92AC30B107D9F721E0ACE0B1E0BA
:1000900001C01D92AF33B207E1F70E94C1030C9477
:1000A00098040C9400008CB58F7B8CBD249A2C9AFC
:1000B0002FEF89EF90E0215080409040E1F700C0A1
:1000C00000002C982FEF89EF90E021508040904065
:1000D000E1F700C000002C9A2FEF89EF90E021504B
:1000E00080409040E1F700C00000249808951F92DE
:1000F0000F920FB60F9211244F935F936F937F93DC
:100100008F939F93AF93BF93EF93FF932998E091C1
:10011000120184E0E89FF0011124E15EFE4F80911E
:100120000D0190E0A0E0B0E055E1880F991FAA1FF3
:10013000BB1F5A95D1F74081518162817381842B15
:10014000952BA62BB72BE0910E01F0910F01EE0F2E
:10015000FF1FEE0FFF1FE050FF4F40815181628172
:10016000738184239523A623B723AD0166277727C0
:100170004EBD0DB407FEFDCF492F5A2F6B2F7727A9
:100180004EBD0DB407FEFDCF8EBD0DB407FEFDCFF5
:10019000299A80910E0190910F01A0911001B091C8
:1001A00011010196A11DB11D83309105A105B10575
:1001B00049F080930E0190930F01A0931001B0932A
:1001C00011011CC010920E0110920F01109210012B
:1001D00010921101809112018F5F863019F0809387
:1001E000120102C01092120181E090E00090120111
:1001F00002C0880F991F0A94E2F788B9FF91EF9126
:10020000BF91AF919F918F917F916F915F914F912E
:100210000F900FBE0F901F901895CF92DF92EF9224
:10022000FF92CF93DF93F894C3E1D1E0EFE1F1E0E7
:100230006991799140E050E020E030E0C12CD12C70
:100240007601CB01022E02C0969587950A94E2F7BB
:10025000837021F0813021F083E003C080E001C091
:1002600081E090E0A0E0B0E0042E04C0880F991F68
:10027000AA1FBB1F0A94D2F7C82AD92AEA2AFB2A46
:100280002E5F3F4F4D5F5F4F2E303105D1F6C1924B
:10029000D192E192F19281E0E733F80749F6789440
:1002A000DF91CF91FF90EF90DF90CF90089589B1CB
:1002B0008F3FE9F320E030E089B190E0022E02C0E8
:1002C000959587950A94E2F780FF08C02F5F3F4F0E
:1002D0002830310589F780E090E00895C90108953C
:1002E00020E030E0261737073CF4FC011192119210
:1002F000CF012F5F3F4FF6CF0895CF92DF92EF925D
:10030000FF92F894EFE1F1E090E0A0E0B0E020E0AF
:1003100030E040E050E0BA016C017D01022E04C0E3
:10032000CC0CDD1CEE1CFF1C0A94D2F74C295D2975
:100330006E297F292D5F3F4F2531310569F74193A4
:1003400051936193719321E0E733F20701F77894B9
:10035000FF90EF90DF90CF900895CF92DF92EF92D1
:10036000FF920F931F93CF93DF93882309F476C0F6
:10037000C5E0D0E00BE311E093E0E92EF12C87E338
:10038000C82E81E0D82ED601ED91F0E013968C9125
:100390001397EE0FFF1FED5EFE4F880F970102C00F
:1003A000220F331F8A95E2F7C9018095909520812D
:1003B000318182239323918380830A171B0721F7BE
:1003C0000E940D013FEF47E853E13150404050405B
:1003D000E1F700C0000020910C0130E0D601ED9162
:1003E0006D01F0E013968C911397EE0FFF1FED5EF9
:1003F000FE4F880FA90102C0440F551F8A95E2F7EE
:1004000080819181842B952B918380830A171B0710
:1004100029F70E940D01BFEF27E833E1B1502040DA
:100420003040E1F700C00000219709F0A8CF80E03C
:100430000E947D0166E070E083E191E00E9470011E
:1004400081E080930C0180930D01DF91CF911F918A
:100450000F91FF90EF90DF90CF90089587E00E947A
:100460007D0185E090E027E010920D014FEF57E805
:10047000A3E141505040A040E1F700C000002093AC
:100480000D01BFEF37E843E1B15030404040E1F7A4
:1004900000C00000019741F7CACFAF92BF92CF9240
:1004A000DF92EF92FF920F931F93CF93DF9340E081
:1004B00050E08A01000F111FB3E1AB2EB1E0BB2E5B
:1004C000D50160E070E080E090E0F62EED91FD91C6
:1004D000002E02C0F695E7950A94E2F72D913C9123
:1004E0001197002E02C0369527950A94E2F72E2721
:1004F0003F2723703327232B89F49F012370332751
:10050000232B71F08E2F8370E92FF0E0E95CFE4F12
:10051000608344839F5F933018F00BC080E090E0CD
:100520006F5F7F4F6530710581F6933050F0C5E005
:10053000FC2EE92FF0E0E95CFE4FF394F082448357
:1005400015C14F5F5F4F4730510509F0B2CF60E0F2
:1005500070E0F501019111915F0180E0E0E0A0E021
:10056000B0E0AD01440F551F7801042E02C0F6948F
:10057000E7940A94E2F79D012F5F3F4F4E5F5F4F74
:10058000680102C0D694C7944A95E2F7A6014E25A9
:100590005F2543705527452BA1F4A70143705527CC
:1005A000452B89F08E2D83704E2F50E0495C5E4FB5
:1005B000EA0168839FEF920F9C83EF5FE33018F0AE
:1005C00009C080E0E0E0D9012630310551F6E33082
:1005D00040F001C09D01F0E0E95CFE4F60832F5FB9
:1005E000A6C06F5F7F4F6630710509F0B2CFA0E003
:1005F000B0E08D01000F111F63E070E0FB01EE0F12
:10060000FF1FED5EFE4F7801B12C90E040E050E01E
:10061000C081D1810E2C02C0D695C7950A94E2F70D
:1006200082E0E80EF11CD290C2900E2C02C0D6944B
:10063000C7940A94E2F7CC26DD2683E0C822DD24A5
:10064000CD28B9F46E0183E0C822DD24CD2899F0CD
:100650008C2F8370B82EC92FD0E0C95CDE4FD62E08
:10066000D41AD882D42EDA0EDC829F5F933018F031
:1006700009C0B12C90E04F5F5F4F4330510541F608
:10068000933060F0E92FF0E0E95CFE4F6150641BAD
:1006900060834A0F4F5F44838B2D68C06F5F7F4F2D
:1006A0006630710509F0AACF1196A430B10509F0A2
:1006B000A0CF3FC080E090E06F5F7F4F6330710557
:1006C00009F447C0E080F1800C2E02C0F694E79454
:1006D0000A94E2F72297B291A2910C2E02C0B6952D
:1006E000A7950A94E2F7AE25BF25A370BB27AB2BD5
:1006F00009F7D701A370BB27AB2BF1F28E2D8370C6
:10070000A92FB0E0A95CBE4FF42EF61AFC92F22E8F
:10071000F61A1496FC929F5F933070F2E92FF0E086
:10072000E95CFE4F4150461B40832150261B248329
:100730001DC08901000F111F43E050E0FA01EE0FC8
:10074000FF1FED5EFE4FE80180E090E060E070E0AA
:10075000B9CF933018F74F5F5F4F4630510571F7AF
:10076000215031092230310521F780E0DF91CF910E
:100770001F910F91FF90EF90DF90CF90BF90AF90BF
:10078000089518B88FE387B91AB88FEF8BB984B181
:100790008F6284B90E9453002C9A2A9A80E18CBD02
:1007A0008DB581608DBD82E085BD81E080936E0056
:1007B000EFE1F1E087E391E0119211921192119231
:1007C0008E179F07C9F728988CB580648CBD7894E4
:1007D0002A9866E070E083E191E00E94700181E078
:1007E00080930C0180930D0133E0C32ED12C0E9425
:1007F00057018730910511F480E088C02FE739EA6E
:1008000043E0215030404040E1F700C00000EC01DF
:10081000CC0FDD1F80911301909114010C2E02C0AA
:10082000969587950A94E2F783709927892BF9F6B4
:1008300086010C2E02C0000F111F0A94E2F70095EA
:10084000109583E1E82E81E0F82EAA24A394B12C20
:1008500080910C0190E00C2E02C0880F991F0A9421
:10086000E2F7F70120813181822B932B81939193C1
:100870007F01F1E0AF16B10441F0F70134978081B8
:10088000918180239123918380830E940D01F70140
:10089000808191810C2E02C0969587950A94E2F78B
:1008A00083709927892B71F52FE739EA43E02150AE
:1008B00030404040E1F700C000008FEFA81AB80AAE
:1008C00096E0A916B10421F680910C0190E002C0D7
:1008D000880F991FCA95E2F720911D0130911E01E2
:1008E000822B932B90931E0180931D0180911B01FD
:1008F00090911C010823192310931C0100931B01E4
:100900000E940D010E944D02882319F00E94AD0142
:100910006ECF80910C01813011F081E001C082E046
:1009200080930C01813009F083E080930D015FCF4B
:04093000F894FFCF69
:0C093400499224009224490024499200BA
:00000001FF
