:100000000C9434000C9451000C9451000C94510049
:100010000C9451000C9451000C9451000C9451001C
:100020000C9451000C94E3010C9451000C94510079
:100030000C9451000C9451000C9451000C945100FC
:100040000C9499010C9451000C9451000C945100A3
:100050000C9451000C9451000C9451000C945100DC
:100060000C9451000C94510011241FBECFEFD8E026
:10007000DEBFCDBF11E0A0E0B1E0EAEEFAE002C0E1
:1000800005900D92AC30B107D9F721E0ACE0B1E0BA
:1000900001C01D92AB34B207E1F70E947B020C94C1
:1000A00073050C940000CF92DF92EF92FF92CF93F2
:1000B000DF93F894E4E1F1E090E0B0E0A0E0119289
:1000C00011921192119230E020E040E050E0BA012C
:1000D0006C017D01022E04C0CC0CDD1CEE1CFF1C4B
:1000E0000A94D2F74C295D296E297F292D5F3F4F55
:1000F0002531310569F7EF012497488359836A83D5
:100100007B8321E0EC32F207D1F67894DF91CF9136
:10011000FF90EF90DF90CF900895CF92DF92EF9213
:10012000FF92CF93DF93F894E4E1F1E0C6E3D1E0EE
:1001300011921192119211926991799130E020E01F
:1001400050E040E0C12CD12C7601CB01042E02C03E
:10015000969587950A94E2F7837019F0813009F03B
:1001600083E090E0B0E0A0E0022E04C0880F991F69
:10017000AA1FBB1F0A94D2F7C82AD92AEA2AFB2A47
:100180004E5F5F4F2D5F3F4F25313105F1F6DF01A7
:100190001497CD92DD92ED92FC92139781E0EC32B0
:1001A000F80731F67894DF91CF91FF90EF90DF90D0
:1001B000CF9008958EBD00000DB407FEFDCF8EB523
:1001C0000895AF92BF92CF92DF92EF92FF920F937A
:1001D0001F93CF93DF93882309F48CC005E010E0D0
:1001E00050E3E52E51E0F52E63E0C62ED12C4CE213
:1001F000A42E41E0B42EE501E991F0E0EE0FFF1FDF
:10020000EA5CFE4F8B81880F960102C0220F331FDC
:100210008A95E2F7C90180959095208131818223EA
:10022000932391838083EC16FD0631F70E948D00A5
:100230003FEF47E853E1315040405040E1F700C004
:1002400000008091350190E0D501ED915D01F0E075
:10025000EE0FFF1FEA5CFE4F13962C911397220FAF
:10026000AC0102C0440F551F2A95E2F79A01408164
:100270005181242B352B31832083CA17DB0721F7CB
:100280000E948D005FEF87E893E1515080409040DD
:10029000E1F700C000000150110909F0A8CF80E08B
:1002A0000E945300109237011092360110923901CA
:1002B0001092380110923B0110923A0110923D01C8
:1002C00010923C0110923F0110923E0110924101A8
:1002D0001092400181E08093350180933401DF91D9
:1002E000CF911F910F91FF90EF90DF90CF90BF9033
:1002F000AF90089587E00E94530085E090E027E0EA
:1003000010923401AFEFB7E833E1A150B040304074
:10031000E1F700C00000209334014FEF57E8A3E15C
:1003200041505040A040E1F700C00000019741F764
:10033000B6CF1F920F920FB60F9211242F933F93B7
:100340008F939F93AF93BF93809147019091480102
:10035000A0914901B0914A013091460123E0230F59
:100360002D3758F50196A11DB11D209346018093AC
:10037000470190934801A0934901B0934A018091AD
:10038000420190914301A0914401B0914501019631
:10039000A11DB11D8093420190934301A09344019C
:1003A000B0934501BF91AF919F918F913F912F9154
:1003B0000F900FBE0F901F90189526E8230F0296FE
:1003C000A11DB11DD2CF1F920F920FB60F92112413
:1003D000CF92DF92EF92FF922F933F934F935F93D1
:1003E0006F937F938F939F93AF93BF93EF93FF93FD
:1003F0002998E091100184E0E89FF0011124EC5E5F
:10040000FE4FC0903401D12CF12CE12C85E1CC0CB5
:10041000DD1CEE1CFF1C8A95D1F780819181A281A1
:10042000B3818C299D29AE29BF29E0910C01F0915F
:100430000D01EE0FFF1FEE0FFF1FE050FF4F408139
:100440005181628173816C017D01C422D522E62233
:100450008E2D0E94DA008D2D0E94DA008C2D0E94D4
:10046000DA00299A80910C0190910D01A0910E0162
:10047000B0910F010196A11DB11D83309105A10519
:10048000B105E9F080930C0190930D01A0930E014A
:10049000B0930F01FF91EF91BF91AF919F918F9119
:1004A0007F916F915F914F913F912F91FF90EF90CE
:1004B000DF90CF900F900FBE0F901F901895109265
:1004C0000C0110920D0110920E0110920F018091FB
:1004D00010018F5F863061F0809310012091100130
:1004E00081E090E001C0880F2A95EAF788B9D2CF61
:1004F00010921001F3CF789484B5826084BD84B5E6
:10050000816084BD85B5826085BD85B5816085BD0E
:1005100080916E00816080936E00109281008091C6
:10052000810082608093810080918100816080934E
:100530008100809180008160809380008091B10073
:1005400084608093B1008091B00081608093B0009E
:1005500080917A00846080937A0080917A00826032
:1005600080937A0080917A00816080937A008091F4
:100570007A00806880937A001092C10018B88FE3E7
:1005800087B91AB88FEF8BB984B18F6284B9809123
:100590001301882359F09FB7F8942091130180919B
:1005A0001201213009F09BC08DBB9FBF9FB7F8940B
:1005B00080911101882319F081508093110180915D
:1005C0001101811105C08CB58F7B8CBD1092130178
:1005D0009FBF249A2C9A2FEF89EF90E02150804002
:1005E0009040E1F700C000002C98CFEFD9EF20E059
:1005F000C150D0402040E1F700C000002C9A8FEF9E
:1006000099EFC0E081509040C040E1F700C0000089
:1006100024982C9A2A9A80911301882369F08FB725
:10062000F89490911301913009F05BC09DB39093C1
:1006300012019DB39DBB8FBF80E58CBD81E08DBD58
:1006400092E09093B10080937000E4E1F1E01192A8
:10065000119211921192D1E0EC32FD07C1F7289866
:1006600078942A981092370110923601109239012D
:100670001092380110923B0110923A0110923D0104
:1006800010923C0110923F0110923E0110924101E4
:100690001092400181E08093350180933401A3E002
:1006A0006A2E712CAA24A394B2E0BB2E89B18F3F8D
:1006B000E9F3D12CC12C29B130E00C2C02C03595C6
:1006C00027950A94E2F720FF0FC02FEFC21AD20A33
:1006D00088E0C816D10479F7D12CC12C0BC08FBF8C
:1006E00065CF80931201A8CF80E097E0C916D104AE
:1006F00009F4F2C1CFE7D9EA23E0C150D04020404D
:10070000E1F700C00000CC0CDD1C80913601909117
:1007100037010C2C02C0969587950A94E2F78370F6
:100720009927892B19F683010C2C02C0000F111F89
:100730000A94E2F700951095C4E3D1E088248394ED
:10074000912C8091350190E00C2C02C0880F991FEC
:100750000A94E2F72A813B81822B932B9B838A8325
:1007600081E08816910431F088819981802391235A
:10077000998388830E948D008C819D810C2C02C0FE
:10078000969587950A94E2F783709927892B79F5D6
:100790009FE729EA83E0915020408040E1F700C0C4
:1007A00000009FEF891A990A229626E0821691048A
:1007B00041F68091350190E002C0880F991FCA94DC
:1007C000E2F72091400130914101822B932B9093CD
:1007D00041018093400180913E0190913F010823A7
:1007E000192310933F0100933E010E948D0050E0B9
:1007F00040E07A01EE0CFF1C06E311E070E060E0DF
:1008000080E0E0E0962FE801A991B9918E010E2CCD
:1008100002C0B695A7950A94E2F7288139810E2C7B
:1008200002C0369527950A94E2F72A273B272370C2
:100830003327232B09F0F6C09D0123703327232B88
:1008400009F4F2C08A2F8370AE2FB0E0A45DBE4FD2
:100850006C9314964C93EF5FE33008F4E5C0F0E03E
:10086000E45DFE4F9F5F908358C080E0E0E0980118
:100870000630110509F0F2C0E33008F024C14F5FE3
:100880005F4F4630510509F0E3C0F12CE12C70E0D8
:1008900060E023E030E0F901EE0FFF1FEA5CFE4F5D
:1008A000870180E090E050E040E0A081B181002E1F
:1008B00002C0B695A7950A94E2F70E5F1F4FD2903B
:1008C000C290002E02C0D694C7940A94E2F7CA26BA
:1008D000DB26D3E0CD22DD24CD2809F56D01C3E070
:1008E000CC22DD24CD28E9F08A2F8370A92FB0E037
:1008F000A45DBE4FD22ED41ADC92D42ED60E1496FE
:10090000DC929F5F933068F0E92FF0E0E45DFE4FEA
:100910002150241B2083460F4F5F4483DAC080E0C0
:1009200090E04F5F5F4F4330510509F0BECF9330E9
:1009300058F72F5F3F4F2630310509F0ACCF6F5F7E
:100940007F4FD2E0ED0EF11C6430710509F0A1CFAC
:100950009CE0E92EF12C43E050E0FA01EE0FFF1F7E
:10096000EA5CFE4FD70180E090E070E060E000813B
:1009700011810A2E02C0169507950A94E2F7129784
:10098000D290C2900A2E02C0D694C7940A94E2F77D
:10099000C026D126C3E0CC22DD24CD2801F5680194
:1009A000D3E0CD22DD24CD28E1F0802F8370092F04
:1009B00010E0045D1E4FD42ED61AE801D882D22E44
:1009C000D61ADC829F5F933060F0E92FF0E0E45D9F
:1009D000FE4F4150461B40832150261B79C080E0CA
:1009E00090E06F5F7F4F6330710509F6933068F7D1
:1009F0004F5F5F4F4630510509F0AFCF21503109AD
:100A0000D2E0ED1AF1082230310509F0A4CF80912F
:100A10003501813009F063C0B092350183E08093E5
:100A2000340144CE80E0E0E06F5F7F4F65307105B8
:100A300009F0E8CEE33010F095E011CF4F5F5F4F43
:100A40004730510509F0D5CEA6E3B1E050E040E0D3
:100A5000ED90FD9080E0E0E030E020E06901CC0C1A
:100A6000DD1CB7010C2C02C0769567950A94E2F75D
:100A700089010F5F1F4F92E0C90ED11CE70102C030
:100A8000D695C795CA94E2F76E01C626D726D3E05D
:100A9000CD22DD24CD2809F0E8CE6B0193E0C922F8
:100AA000DD24CD2809F4E3CE862F83706E2F70E00D
:100AB000645D7E4FEB0148839FEF900F9C83EF5F57
:100AC000E33008F4D4CEF0E0E45DFE4F40832F5FC6
:100AD0002483882309F49BCF0E94E100E7CDA092F4
:0A0AE000350181E09CCFF894FFCFB0
:0C0AEA0049922400922449002449920003
:00000001FF
