:100000000C9434000C9451000C9451000C94510049
:100010000C9451000C9451000C9451000C9451001C
:100020000C9451000C9451000C9451000C9451000C
:100030000C9451000C9451000C9451000C945100FC
:100040000C9477000C9451000C9451000C945100C6
:100050000C9451000C9451000C9451000C945100DC
:100060000C9451000C94510011241FBECFEFD8E026
:10007000DEBFCDBF11E0A0E0B1E0ECE9F2E102C0EB
:1000800005900D92A033B107D9F721E0A0E3B1E0CC
:1000900001C01D92AA35B207E1F70E9475040C94C5
:1000A0004C090C9400008CB58F7B8CBD249A2C9A43
:1000B0002FEF89EF90E0215080409040E1F700C0A1
:1000C00000002C982FEF89EF90E021508040904065
:1000D000E1F700C000002C9A2FEF89EF90E021504B
:1000E00080409040E1F700C00000249808951F92DE
:1000F0000F920FB60F9211244F935F936F937F93DC
:100100008F939F93AF93BF93EF93FF932998A09101
:100110003101B0913201AA0FBB1FAA0FBB1FA05023
:10012000BF4FE0913501F0E0EE0FFF1FEE0FFF1F14
:10013000EE5BFE4F4D915D916D917C91808191813F
:10014000A281B38184239523A623B723AD0166271B
:1001500077274EBD0DB407FEFDCF492F5A2F6B2FC9
:1001600077274EBD0DB407FEFDCF8EBD0DB407FE43
:10017000FDCF299A8091310190913201A0913301F4
:10018000B09134010196A11DB11D8C309105A105DE
:10019000B105B9F08093310190933201A0933301FE
:1001A000B0933401FF91EF91BF91AF919F918F91E7
:1001B0007F916F915F914F910F900FBE0F901F90A5
:1001C0001895109231011092320110923301109261
:1001D0003401809135018F5F863051F08093350175
:1001E00091E001C0990F8A95EAF7892F87B9DACF94
:1001F0001092350181E087B9D5CF3F924F925F923F
:100200006F927F928F929F92AF92BF92CF92DF9226
:10021000EF92FF920F931F93CF93DF93A09036013D
:10022000B0903701E0913801F091390140913A01E5
:1002300050913B0120913C0130913D01A0913E0144
:10024000B0913F01809040019090410180E090E0AA
:10025000F82E8501082E02C0169507950A94E2F73C
:10026000BF01082E02C0769567950A94E2F7E8016F
:10027000C627D727C370DD27CD2B09F0D8C203705E
:100280001127EE24E394012B09F4D1C28A010F2C2B
:1002900002C0169507950A94E2F7EB01C027D12713
:1002A000C370DD27CD2B09F0D2C263707727672B8F
:1002B00009F0E394E9010F2C02C0D695C7950A9482
:1002C000E2F7B8016C277D2763707727672B09F069
:1002D000C0C2B80163707727672B29F0E39463E00D
:1002E000E61609F4CEC28D010F2C02C016950795B3
:1002F0000A94E2F7BE016027712763707727672BA6
:1003000009F0A9C2BE0163707727672B29F0E39437
:1003100063E0E61609F4B9C2B40102C076956795A8
:10032000FA94E2F76027712763707727672B49F407
:10033000B80163707727672B21F0C2E0EC1609F44F
:10034000A8C202968E30910509F082CF312C86E347
:10035000C82E81E0D82E92E4692E91E0792EE60134
:10036000899199916E01EC01D695C795D695C7955F
:10037000BC016C277D2763707727672B09F059C272
:1003800061E08C0103701127012B09F452C27C013A
:10039000F294E2941FE0E122EF24F122EF248E0197
:1003A0000E251F2503701127012B09F056C2C370BB
:1003B000DD27CD2B09F06F5F8C010024000F111F8A
:1003C000001C000F111F001C012F102DE701C0277A
:1003D000D127C370DD27CD2B09F041C2E701C370DF
:1003E000DD27CD2B21F06F5F633009F456C2E92E73
:1003F000FF24E801CE25DF25C370DD27CD2B09F0D2
:1004000030C2E801C370DD27CD2B21F06F5F633070
:1004100009F447C28C01012F112706950695E701C3
:10042000C027D127C370DD27CD2B09F01CC2E701FF
:10043000C370DD27CD2B21F06F5F633009F435C227
:10044000892F992782958F7080279127837099270C
:10045000892B41F4C80183709927892B19F06230E8
:1004600009F427C26C147D0409F079CF80E090E094
:10047000582E7901082E02C0F694E7940A94E2F708
:10048000BC016E5F7F4FEA01062E02C0D695C7956C
:100490000A94E2F787010C271D2703701127012B0F
:1004A00009F0C9C113E0E122FF2444244394EF285A
:1004B00009F4C1C16C0114E0C10ED11C7F010C2CE8
:1004C00002C0F694E7940A94E2F78E010E251F25E8
:1004D00003701127012B09F0C8C1C370DD27CD2B94
:1004E00009F043943C01C6E06C0E711CC501062C5A
:1004F00002C0969587950A94E2F78E259F25837012
:100500009927892B49F4C70183709927892B21F0FA
:10051000D2E04D1609F4D5C18D01052C02C0169507
:1005200007950A94E2F7C901062E02C096958795B1
:100530000A94E2F7E801C827D927C370DD27CD2B3D
:1005400009F07BC103701127FF24F394012B09F4F8
:1005500074C18A010C2C02C0169507950A94E2F723
:10056000EC01C027D127C370DD27CD2B09F081C155
:1005700083709927892B09F0F394CF01062C02C0D0
:10058000969587950A94E2F780279127837099279B
:10059000892B49F4C80183709927892B21F082E0C7
:1005A000F81609F492C1840102C0169507955A9471
:1005B000E2F7CD01062E02C0969587950A94E2F7E0
:1005C000E801C827D927C370DD27CD2B09F03DC12D
:1005D000E801C370DD27FF24F394CD2B09F435C166
:1005E000890102C016950795CA94E2F7EC01C0276D
:1005F000D127C370DD27CD2B09F03FC18370992728
:10060000892B09F0F394CA0102C0969587956A94E4
:10061000E2F78027912783709927892B49F4C80135
:1006200083709927892B21F0D2E0FD1609F455C17A
:10063000CB016830710509F01BCF8CE090E0582E9B
:100640007901082E02C0F694E7940A94E2F7BC01FF
:1006500062507109EA01062E02C0D695C7950A9428
:10066000E2F78E010E251F2503701127012B09F0DB
:10067000E6C013E0E122FF2444244394EF2809F468
:10068000DEC06C0114E0C11AD1087F010C2C02C03D
:10069000F694E7940A94E2F78E010E251F25037065
:1006A0001127012B09F0E3C0C370DD27CD2B09F022
:1006B00043943C01C6E06C1A7108C501062C02C0C7
:1006C000969587950A94E2F78E259F258370992742
:1006D000892B49F4C70183709927892B21F0D2E037
:1006E0004D1609F4EAC08D01052C02C01695079538
:1006F0000A94E2F7C901062E02C0969587950A94DE
:10070000E2F7E801C827D927C370DD27CD2B09F010
:1007100098C003701127FF24F394012B09F491C0B2
:100720008A010C2C02C0169507950A94E2F7EC0199
:10073000C027D127C370DD27CD2B09F09CC0837063
:100740009927892B09F0F394CF01062C02C09695C6
:1007500087950A94E2F78027912783709927892B40
:1007600049F4C80183709927892B21F082E0F8169B
:1007700009F4AFC0840102C0169507955A94E2F7B8
:10078000CD01062E02C0969587950A94E2F7EC01FA
:10079000C027D127C370DD27CD2B09F054C0E80155
:1007A000C370DD27FF24F394CD2B09F44CC08901DD
:1007B00002C016950795CA94E2F7E801C827D92721
:1007C000C370DD27CD2B09F05AC083709927892B80
:1007D00009F0F394CA0102C0969587956A94E2F7EE
:1007E0008027912783709927892B49F4C80183704A
:1007F0009927892B21F0D2E0FD1609F472C0CB01B4
:100800006430710509F01BCF832DDF91CF911F91CB
:100810000F91FF90EF90DF90CF90BF90AF909F909F
:100820008F907F906F905F904F903F900895E12C54
:100830002DCD60E0ACCD412C3DCEF12C8ACE412CAB
:1008400020CFF12C6DCFF12CB2CFF12CC9CEE12C01
:1008500031CDE12C48CDE12C5FCD60E0ADCD60E045
:10086000C6CD60E0D7CD60E0EBCD412C3BCE412C36
:1008700020CFF12C82CEF12C67CFF12CC4CEF12CFD
:10088000A9CFC02FC3703C2E62CD8C2F8370382E21
:100890005ECDD02FD3703D2E5ACDDE2DD3703D2EA0
:1008A000E5CDD02FD3703D2EE1CD1E2D1370312E0E
:1008B000DDCD602F6370362ED9CDCE2DC3703C2E8A
:1008C0009ECF8E2D8370382EB3CEC02FC3703C2E9A
:1008D000AFCEC02FC3703C2E92CF802F8370382EA6
:1008E000A7CE802F8370382E8ACFCF93DF9300D08E
:1008F00000D01F92CDB7DEB717B818B81AB88FEF6F
:100900008BB984B18E6284B90E9453002C9A2A9AC2
:1009100080E18CBD8DB581608DBD82E085BD91E0AB
:1009200090936E00E2E4F1E088E1DF011D928A9588
:10093000E9F78CB580648CBD78942A9810923701C1
:1009400010923601109239011092380110923B0139
:1009500010923A0110923D0110923C0110923F0119
:1009600010923E011092410110924001909330018B
:1009700089B18F3FE9F3489B7EC1499B00C24A9BE6
:1009800001C24B9B02C24C9BC7C24D9BC2C289B1E4
:10099000B12CBFE7E9EAF3E0B150E040F040E1F705
:1009A00000C000002091360130913701C9010B2CA5
:1009B00002C0969587950A94E2F783709927892B50
:1009C000B9F68091300190E00B2C02C0880F991F7E
:1009D0000A94E2F7282B392B309337012093360104
:1009E00083E090E00B2C02C0880F991F0A94E2F775
:1009F0002C0140945094A6E3B1E0BA83A983BC8350
:100A0000AB8361E070E04B01F89402E4202E01E03A
:100A1000302EF10126E331E06B807C8085C082308E
:100A200009F4CEC0B0E0A0E070E060E018E0C12EB4
:100A3000D12CE12CF12C88E18B83A12C00E010E07B
:100A4000CA0196958795969587958370813039F080
:100A5000823009F4C9C0CB2EDA2EE72EF62ECA0159
:100A6000929582958F7089279F7089278370813036
:100A700009F489C0823009F491C080E090E0DC0183
:100A80008C299D29AE29BF29BA010024660F771F42
:100A9000001C660F771F001C672F702D637061307C
:100AA00009F46BC0623009F473C0C12CD12C7601FB
:100AB0008C299D29AE29BF29652F6370613009F407
:100AC00056C0623009F476C0C12CD12C76018C2935
:100AD0009D29AE29BF29652F6695669563706130A3
:100AE00009F43FC0623009F45EC0C12CD12C7601FC
:100AF0008C299D29AE29BF29452F4295437041304D
:100B000059F1423009F46BC040E050E0BA01842B47
:100B1000952BA62BB72B81939193A193B19391E041
:100B2000EA35F90709F464C0D9014D915D919D0141
:100B3000842F8370813009F072CFB1E0A0E070E0C3
:100B400060E099E0C92ED12CE12CF12C99E19B8336
:100B5000A12C00E010E074CF40E050E060E170E0D4
:100B6000D6CFC12C00E8D02EE12CF12CC1CFC12C66
:100B700060E1D62EE12CF12CAACFC12C12E0D12EAF
:100B8000E12CF12C95CF80E490E0A0E0B0E078CFAC
:100B9000C12C76E0D72EE12CF12C8ACF80EC90E0AE
:100BA000A0E0B0E06DCFC12C10E8D12EEE24E3948C
:100BB000F12C9ECFC12C40E3D42EE12CF12C87CF19
:100BC000B3E0A0E070E060E08BE0C82ED12CE12C17
:100BD000F12C8BE18B83A12C00E010E031CF40E0C1
:100BE00050E068E170E093CFCB80DA2C780137CF0A
:100BF0007C826B827894AB81BC8112968D919C91A2
:100C000013970B2C02C0969587950A94E2F7837090
:100C10009927892BA1F5BFE7E9EAF3E0B150E0405D
:100C2000F040E1F700C000002FEF821A920A36E090
:100C30008316910409F4ACC08091300190E00B2C34
:100C400002C0880F991F0A94E2F7AB81BC8112960B
:100C50002D913C911397822B932B13969C938E93FB
:100C600012978D919C911197842195218D939D933D
:100C7000BC83AB83C9CE5CE0B52E8BCE78948091DB
:100C80003001813009F499C181E0809330010E94E4
:100C9000FD0090E0009709F46BCEBFEFE4E3FCE0C9
:100CA000B150E040F040E1F700C000001092420176
:100CB0001092430110924401109245011092460196
:100CC00010924701109248011092490110924A0176
:100CD00010924B0110924C0110924D0110924E0156
:100CE00010924F0110925001109251011092520136
:100CF0001092530110925401109255011092560116
:100D000010925701109258011092590181309105AB
:100D100009F455C1029709F481C185E090E02FEFF5
:100D200037E843E1215030404040E1F700C0000087
:100D30001092420110924301109244011092450119
:100D4000AFEFB7E8E3E1A150B040E040E1F700C009
:100D50000000019721F789B18F3FE9F3489BFBCF52
:100D6000499BF9CF4A9BF7CF4B9BF5CF4C9BF3CFD9
:100D70004D9B83C189B189B18F3F69F3EFCF4AE0C1
:100D8000B42E07CE38E0B32E04CE26E0B22E01CE2C
:100D90000AE511E08091300190E002C0880F991FB0
:100DA000BA94E2F72091400130914101822B932BBC
:100DB000909341018093400180913E0190913F01C9
:100DC0008421952190933F0180933E01F894E2E4C1
:100DD000F1E086E391E09C838B8381C0223009F4AB
:100DE000D9C0A12CB12CC12CD12C48E050E060E03E
:100DF00070E0B8E1EB2EF12CB0E0A0E09C0136955C
:100E00002795369527952370213029F0223009F453
:100E1000D0C0A501B6019C01329522952F702327E1
:100E20003F7023272370213009F490C0223009F449
:100E300099C0C12CD12C76014C295D296E297F29BE
:100E40009C010024220F331F001C220F331F001CA3
:100E5000232F302D2370213009F472C0223009F481
:100E60007BC0C12CD12C76014C295D296E297F29AC
:100E7000292F2370213009F45DC0223009F47FC08E
:100E8000C12CD12C76014C295D296E297F29292F6F
:100E9000269526952370213009F446C0223009F4A6
:100EA00067C0C12CD12C76014C295D296E297F2980
:100EB000892F82958370813091F1823009F465C069
:100EC00080E090E0DC01842B952BA62BB72B81933F
:100ED0009193A193B1930E171F0709F4CFCEAB8165
:100EE000BC818D919D91BC83AB83282F23702130D1
:100EF00009F074CFAA24A394B12CC12CD12C49E0C1
:100F000050E060E070E0A9E1EA2EF12CB0E0A0E052
:100F100075CF82E0B82E3DCD94E0B92E3ACD80E079
:100F200090E0A0E1B0E0CFCFC12CB0E8DB2EE12C07
:100F3000F12CBACFC12C20E1D22EE12CF12CA3CF81
:100F4000C12CA2E0DA2EE12CF12C8ECF30E4C32E9E
:100F5000D12CE12CF12C70CFC12C36E0D32EE12C1A
:100F6000F12C82CF20ECC22ED12CE12CF12C64CFBD
:100F7000C12CA0E8DA2EEE24E394F12C95CFC12CFD
:100F800080E3D82EE12CF12C7ECF80E090E0A8E128
:100F9000B0E099CF23E0A22EB12CC12CD12C4BE094
:100FA00050E060E070E03BE1E32EF12CB0E0A0E027
:100FB00025CFA7016B2F7A2F2ECF82E066CE85E05A
:100FC00090E049E450E060E070E0409342015093CB
:100FD00043016093440170934501FFEF27E833E13B
:100FE000F15020403040E1F700C000001092420173
:100FF000109243011092440110924501AFEFB7E8FF
:10100000E3E1A150B040E040E1F700C000000197EB
:10101000E1F689B18F3F09F49ECEA0CE85E090E045
:101020004BED50E060E070E040934201509343018B
:101030006093440170934501FFEF27E833E1F150DD
:1010400020403040E1F700C00000109242011092B1
:1010500043011092440110924501AFEFB7E8E3E17C
:10106000A150B040E040E1F700C000000197E1F678
:1010700089B18F3F09F46FCE71CE81E0809330014A
:1010800010923701109236011092390110923801F6
:1010900010923B0110923A0110923D0110923C01D6
:1010A00010923F0110923E011092410110924001B6
:1010B000F894A981BA812D913D91BA83A983822F99
:1010C0008370813009F4DAC0823009F4C9C080E04D
:1010D00090E0DC01E8E0F12C00E010E0F8E1FD83B5
:1010E0001B8270E060E0A90156954795569547959B
:1010F0004370413009F4B0C0423009F4A8C0A901DE
:10110000529542954F7045275F7045274370413097
:1011100009F498C0423009F490C040E050E0BA01B0
:10112000842B952BA62BB72BA9010024440F551F08
:10113000001C440F551F001C452F502D437041309B
:1011400009F476C0423009F46EC040E050E0BA01C4
:10115000842B952BA62BB72B432F4370413009F4DA
:101160005CC0423009F453C0C12CD12C76018C29CB
:101170009D29AE29BF29432F46954695437041309E
:1011800009F43FC04230B1F1C12CD12C7601C82AFC
:10119000D92AEA2AFB2A832F82958370813029F18C
:1011A0008230F1F000E010E098010C291D292E2971
:1011B0003F29D1010D931D932D933D931D01BAE558
:1011C0002B16B1E03B0609F074CF7894EFEFF9E607
:1011D00028E1E150F0402040E1F700C00000C8CB1A
:1011E00000E010E028E130E0E0CF00E010E020E196
:1011F00030E0DBCFC12C20E8D22EEE24E394F12C9A
:10120000C6CFC12C40E8D42EE12CF12CC0CFC12C8C
:1012100050E3D52EE12CF12CAACFC12C60E1D62EC3
:10122000E12CF12CA4CF40E056E060E070E090CFDC
:1012300040E052E060E070E08BCF40EC50E060E0D6
:1012400070E06ECF40E450E060E070E069CF8D81E7
:101250009B81A72FB62F53CF8E2F9F2DD8014FCF15
:1012600083E090E0A0E0B0E0EBE0F12C00E010E0E3
:10127000FBE1FD831B8270E060E035CF81E090E010
:10128000A0E0B0E0E9E0F12C00E010E049E14D839E
:0C1290001B8270E060E027CFF894FFCFD5
:10129C000900000040020000009000000000100057
:1012AC001200000080040000002001000000080073
:1012BC0024000000000900000040020000000400AF
:00000001FF
