S01000004156525F436F64652E7372656351
S11300000C9434000C9451000C9451000C94510045
S11300100C9451000C9451000C9451000C94510018
S11300200C9451000C9451000C9451000C94510008
S11300300C9451000C9451000C9451000C945100F8
S11300400C9477000C9451000C9451000C945100C2
S11300500C9451000C9451000C9451000C945100D8
S11300600C9451000C94510011241FBECFEFD8E022
S1130070DEBFCDBF11E0A0E0B1E0E4E8F2E102C0F0
S113008005900D92AC30B107D9F721E0ACE0B1E0B6
S113009001C01D92A633B207E1F70E9475040C94C7
S11300A040090C9400008CB58F7B8CBD249A2C9A4B
S11300B02FEF89EF90E0215080409040E1F700C09D
S11300C000002C982FEF89EF90E021508040904061
S11300D0E1F700C000002C9A2FEF89EF90E0215047
S11300E080409040E1F700C00000249808951F92DA
S11300F00F920FB60F9211244F935F936F937F93D8
S11301008F939F93AF93BF93EF93FF932998A091FD
S11301100D01B0910E01AA0FBB1FAA0FBB1FA05067
S1130120BF4FE0911101F0E0EE0FFF1FEE0FFF1F34
S1130130E25EFE4F4D915D916D917C918081918144
S1130140A281B38184239523A623B723AD01662717
S113015077274EBD0DB407FEFDCF492F5A2F6B2FC5
S113016077274EBD0DB407FEFDCF8EBD0DB407FE3F
S1130170FDCF299A80910D0190910E01A0910F015C
S1130180B09110010196A11DB11D83309105A10507
S1130190B105B9F080930D0190930E01A0930F0166
S11301A0B0931001FF91EF91BF91AF919F918F9107
S11301B07F916F915F914F910F900FBE0F901F90A1
S11301C0189510920D0110920E0110920F011092C9
S11301D01001809111018F5F863051F080931101DD
S11301E091E001C0990F8A95EAF7892F88B9DACF8F
S11301F01092110181E088B9D5CF3F924F925F925E
S11302006F927F928F929F92AF92BF92CF92DF9222
S1130210EF92FF920F931F93CF93DF93A09012015D
S1130220B0901301E0911401F09115014091160171
S1130230509117012091180130911901A0911A01D0
S1130240B0911B0180901C0190901D0180E090E012
S1130250F82E8501082E02C0169507950A94E2F738
S1130260BF01082E02C0769567950A94E2F7E8016B
S1130270C627D727C370DD27CD2B09F0D8C203705A
S11302801127EE24E394012B09F4D1C28A010F2C27
S113029002C0169507950A94E2F7EB01C027D1270F
S11302A0C370DD27CD2B09F0D2C263707727672B8B
S11302B009F0E394E9010F2C02C0D695C7950A947E
S11302C0E2F7B8016C277D2763707727672B09F065
S11302D0C0C2B80163707727672B29F0E39463E009
S11302E0E61609F4CEC28D010F2C02C016950795AF
S11302F00A94E2F7BE016027712763707727672BA2
S113030009F0A9C2BE0163707727672B29F0E39433
S113031063E0E61609F4B9C2B40102C076956795A4
S1130320FA94E2F76027712763707727672B49F403
S1130330B80163707727672B21F0C2E0EC1609F44B
S1130340A8C202968E30910509F082CF312C82E149
S1130350C82E81E0D82E9EE1692E91E0792EE60127
S1130360899199916E01EC01D695C795D695C7955B
S1130370BC016C277D2763707727672B09F059C26E
S113038061E08C0103701127012B09F452C27C0136
S1130390F294E2941FE0E122EF24F122EF248E0193
S11303A00E251F2503701127012B09F056C2C370B7
S11303B0DD27CD2B09F06F5F8C010024000F111F86
S11303C0001C000F111F001C012F102DE701C02776
S11303D0D127C370DD27CD2B09F041C2E701C370DB
S11303E0DD27CD2B21F06F5F633009F456C2E92E6F
S11303F0FF24E801CE25DF25C370DD27CD2B09F0CE
S113040030C2E801C370DD27CD2B21F06F5F63306C
S113041009F447C28C01012F112706950695E701BF
S1130420C027D127C370DD27CD2B09F01CC2E701FB
S1130430C370DD27CD2B21F06F5F633009F435C223
S1130440892F992782958F70802791278370992708
S1130450892B41F4C80183709927892B19F06230E4
S113046009F427C26C147D0409F079CF80E090E090
S1130470582E7901082E02C0F694E7940A94E2F704
S1130480BC016E5F7F4FEA01062E02C0D695C79568
S11304900A94E2F787010C271D2703701127012B0B
S11304A009F0C9C113E0E122FF2444244394EF2856
S11304B009F4C1C16C0114E0C10ED11C7F010C2CE4
S11304C002C0F694E7940A94E2F78E010E251F25E4
S11304D003701127012B09F0C8C1C370DD27CD2B90
S11304E009F043943C01C6E06C0E711CC501062C56
S11304F002C0969587950A94E2F78E259F2583700E
S11305009927892B49F4C70183709927892B21F0F6
S1130510D2E04D1609F4D5C18D01052C02C0169503
S113052007950A94E2F7C901062E02C096958795AD
S11305300A94E2F7E801C827D927C370DD27CD2B39
S113054009F07BC103701127FF24F394012B09F4F4
S113055074C18A010C2C02C0169507950A94E2F71F
S1130560EC01C027D127C370DD27CD2B09F081C151
S113057083709927892B09F0F394CF01062C02C0CC
S1130580969587950A94E2F7802791278370992797
S1130590892B49F4C80183709927892B21F082E0C3
S11305A0F81609F492C1840102C0169507955A946D
S11305B0E2F7CD01062E02C0969587950A94E2F7DC
S11305C0E801C827D927C370DD27CD2B09F03DC129
S11305D0E801C370DD27FF24F394CD2B09F435C162
S11305E0890102C016950795CA94E2F7EC01C02769
S11305F0D127C370DD27CD2B09F03FC18370992724
S1130600892B09F0F394CA0102C0969587956A94E0
S1130610E2F78027912783709927892B49F4C80131
S113062083709927892B21F0D2E0FD1609F455C176
S1130630CB016830710509F01BCF8CE090E0582E97
S11306407901082E02C0F694E7940A94E2F7BC01FB
S113065062507109EA01062E02C0D695C7950A9424
S1130660E2F78E010E251F2503701127012B09F0D7
S1130670E6C013E0E122FF2444244394EF2809F464
S1130680DEC06C0114E0C11AD1087F010C2C02C039
S1130690F694E7940A94E2F78E010E251F25037061
S11306A01127012B09F0E3C0C370DD27CD2B09F01E
S11306B043943C01C6E06C1A7108C501062C02C0C3
S11306C0969587950A94E2F78E259F25837099273E
S11306D0892B49F4C70183709927892B21F0D2E033
S11306E04D1609F4EAC08D01052C02C01695079534
S11306F00A94E2F7C901062E02C0969587950A94DA
S1130700E2F7E801C827D927C370DD27CD2B09F00C
S113071098C003701127FF24F394012B09F491C0AE
S11307208A010C2C02C0169507950A94E2F7EC0195
S1130730C027D127C370DD27CD2B09F09CC083705F
S11307409927892B09F0F394CF01062C02C09695C2
S113075087950A94E2F78027912783709927892B3C
S113076049F4C80183709927892B21F082E0F81697
S113077009F4AFC0840102C0169507955A94E2F7B4
S1130780CD01062E02C0969587950A94E2F7EC01F6
S1130790C027D127C370DD27CD2B09F054C0E80151
S11307A0C370DD27FF24F394CD2B09F44CC08901D9
S11307B002C016950795CA94E2F7E801C827D9271D
S11307C0C370DD27CD2B09F05AC083709927892B7C
S11307D009F0F394CA0102C0969587956A94E2F7EA
S11307E08027912783709927892B49F4C801837046
S11307F09927892B21F0D2E0FD1609F472C0CB01B0
S11308006430710509F01BCF832DDF91CF911F91C7
S11308100F91FF90EF90DF90CF90BF90AF909F909B
S11308208F907F906F905F904F903F900895E12C50
S11308302DCD60E0ACCD412C3DCEF12C8ACE412CA7
S113084020CFF12C6DCFF12CB2CFF12CC9CEE12CFD
S113085031CDE12C48CDE12C5FCD60E0ADCD60E041
S1130860C6CD60E0D7CD60E0EBCD412C3BCE412C32
S113087020CFF12C82CEF12C67CFF12CC4CEF12CF9
S1130880A9CFC02FC3703C2E62CD8C2F8370382E1D
S11308905ECDD02FD3703D2E5ACDDE2DD3703D2E9C
S11308A0E5CDD02FD3703D2EE1CD1E2D1370312E0A
S11308B0DDCD602F6370362ED9CDCE2DC3703C2E86
S11308C09ECF8E2D8370382EB3CEC02FC3703C2E96
S11308D0AFCEC02FC3703C2E92CF802F8370382EA2
S11308E0A7CE802F8370382E8ACFCF93DF9300D08A
S11308F000D000D0CDB7DEB718B88FE387B91AB8E7
S11309008FEF8BB984B18E6284B90E9453002C9A04
S11309102A9A80E18CBD8DB581608DBD82E085BD54
S113092091E090936E00EEE1F1E088E1DF011D9229
S11309308A95E9F78CB580648CBD78942A981092D6
S113094013011092120110921501109214011092C9
S113095017011092160110921901109218011092A9
S11309601B0110921A0110921D0110921C01909308
S11309700C0189B18F3FE9F3489B0CC0499BFFC12F
S11309804A9BF9C14B9BFFC14C9B01C24D9BC3C207
S11309904E9BC5C26CEF7FEF40E0BFE7E9EAF3E0AE
S11309A0B150E040F040E1F700C000002091120196
S11309B030911301C901042E02C0969587950A94BB
S11309C0E2F783709927892BA1F680910C0190E0BE
S11309D0042E02C0880F991F0A94E2F7282B392BA2
S11309E03093130120931201A2E1B1E0BC83AB83E5
S11309F001E010E03801BE83AD837A836983F42E6D
S1130A00F8947EE1272E71E0372EF10122E131E0E6
S1130A104D805E8083C0823009F4CEC088E090E0CF
S1130A20A0E0B0E0D12CE12C00E010E068E16D839F
S1130A30A12CB12CC12CBA01769567957695679552
S1130A406370613031F0623009F4CAC08D2D9E2D7F
S1130A50D801BA01729562956F7067277F70672716
S1130A606370613009F489C0623009F492C0812C4A
S1130A70912C540188299929AA29BB29BA01002457
S1130A80660F771F001C660F771F001C672F702DE1
S1130A906370613009F46BC0623009F474C0812C56
S1130AA0912C540188299929AA29BB29652F63709F
S1130AB0613009F456C0623009F478C0812C912C5D
S1130AC0540188299929AA29BB29652F6695669519
S1130AD06370613009F43FC0623009F460C0812C56
S1130AE0912C540188299929AA29BB29452F42957B
S1130AF04370413059F1423009F46DC040E050E098
S1130B00BA01842B952BA62BB72B81939193A19398
S1130B10B19381E0E633F80709F467C0D9014D9138
S1130B205D919D01842F8370813009F074CF89E039
S1130B3090E0A0E0B0E0DD24D394E12C00E010E0EC
S1130B4069E16D83A12CB12CC12C75CF40E050E03C
S1130B5064E070E0D6CF812C70E8972EA12CB12CE4
S1130B60C1CF812C00E1902EA12CB12CAACF812CD5
S1130B7062E0962EA12CB12C95CF60E4862E912CA8
S1130B80A12CB12C77CF812C46E0942EA12CB12C32
S1130B9089CF00EC802E912CA12CB12C6BCF812C11
S1130BA060E8962EAA24A394B12C9CCF812C10E348
S1130BB0912EA12CB12C85CF8BE090E0A0E0B0E089
S1130BC063E0D62EE12C00E010E06BE16D83A12CF4
S1130BD0B12CC12C30CF40E050E06CE070E091CFFC
S1130BE08D819A2DAB2DBC2D34CF5E824D827894AD
S1130BF0AD81BE8112968D919C9113970F2C02C0EA
S1130C00969587950A94E2F783709927892B99F52D
S1130C10BFE7E9EAF3E0B150E040F040E1F700C09B
S1130C2000002FEF621A720A36E06316710409F4A9
S1130C30B2C080910C0190E00F2C02C0880F991F64
S1130C400A94E2F7AD81BE8112962D913C911397DF
S1130C50822B932B13969C938E9312978D919C9138
S1130C601197E981FA818E239F238D939D93BE83EF
S1130C70AD83C6CE789480910C01813009F497C17C
S1130C8081E080930C010E94FD0090E0009709F43C
S1130C9070CEEFEFF4E32CE0E150F0402040E1F7B8
S1130CA000C0000010921E0110921F01109220013A
S1130CB0109221011092220110922301109224011A
S1130CC010922501109226011092270110922801FA
S1130CD01092290110922A0110922B0110922C01DA
S1130CE010922D0110922E0110922F0110923001BA
S1130CF0109231011092320110923301109234019A
S1130D00109235018130910509F48BC2029709F4E0
S1130D1059C285E090E03FEF47E863E1315040403D
S1130D206040E1F700C0000010921E0110921F0104
S1130D301092200110922101AFEFB7E8E3E1A15036
S1130D40B040E040E1F700C00000019721F789B10D
S1130D508F3FE9F3489BFBCF499B2BC14A9BF7CFBD
S1130D604B9BF5CF4C9BF3CF4D9BF1CF89B189B110
S1130D708F3F69F3EFCF6FEC7FEF44E00ECE63EF6C
S1130D807FEF42E00ACE6FE37FEF46E006CE6FEFDF
S1130D907CEF48E002CE69817A8180910C0190E079
S1130DA002C0880F991FFA94E2F720911C01309138
S1130DB01D01822B932B90931D0180931C01809124
S1130DC01A0190911B016823792370931B0160938E
S1130DD01A01F894EEE1F1E082E191E09A838983CB
S1130DE081C0823009F4D1C088E090E0A0E0B0E096
S1130DF0C12CD12CE12CF12C08E110E070E060E072
S1130E00A90156954795569547954370413029F069
S1130E10423009F4C8C0C601D701A90152954295D0
S1130E204F7045275F7045274370413009F48FC0E8
S1130E30423009F496C040E050E0BA01842B952B6F
S1130E40A62BB72BA9010024440F551F001C440FE7
S1130E50551F001C452F502D4370413009F472C0BA
S1130E60423009F479C040E050E0BA01842B952B5C
S1130E70A62BB72B432F4370413009F45EC0423098
S1130E8009F479C040E050E0BA01842B952BA62BDD
S1130E90B72B432F469546954370413009F448C01B
S1130EA0423009F463C040E050E0BA01842B952B32
S1130EB0A62BB72B232F229523702130A1F12230AA
S1130EC009F45EC040E050E0BA01842B952BA62BB8
S1130ED0B72B81939193A193B193B1E0E633FB07D0
S1130EE009F4C8CEA981BA812D913D91BA83A98311
S1130EF0822F8370813009F074CF89E090E0A0E004
S1130F00B0E0CC24C394D12CE12CF12C09E110E005
S1130F1070E060E075CF6FEF73EF4AE03ECD6FEFA6
S1130F207FEC4CE03ACD40E050E064E070E0CDCF9F
S1130F3040E050E860E070E0B9CF40E050E160E0AC
S1130F4070E0A3CF40E052E060E070E08FCF40E477
S1130F5050E060E070E072CF40E056E060E070E0A6
S1130F6085CF40EC50E060E070E068CF40E050E8AE
S1130F7061E070E09BCF40E050E360E070E085CF3B
S1130F8040E050E06CE070E0A0CF8BE090E0A0E0A7
S1130F90B0E043E0C42ED12CE12CF12C0BE110E0A5
S1130FA070E060E02DCFC801A72FB62F36CF82E0C6
S1130FB068CE81E080930C0110921301109212010B
S1130FC0109215011092140110921701109216013B
S1130FD0109219011092180110921B0110921A011B
S1130FE010921D0110921C01F894AB81BC812D91CB
S1130FF03D91BC83AB83822F8370813009F4D4C0CC
S1131000823009F4C3C0E8E0F12C00E010E080E095
S113101090E0DC01F8E1FD83198270E060E0A90151
S113102056954795569547954370413009F4AAC0A3
S1131030423009F4A2C0A901529542954F70452748
S11310405F7045274370413009F492C0423009F47F
S11310508AC040E050E0BA01842B952BA62BB72B15
S1131060A9010024440F551F001C440F551F001CE8
S1131070452F502D4370413009F470C0423009F4BB
S113108068C040E050E0BA01842B952BA62BB72B07
S1131090432F4370413009F457C0423009F44FC024
S11310A040E050E0BA01842B952BA62BB72B432F9D
S11310B04695469543704130E9F14230B1F140E044
S11310C050E0BA01482B592B6A2B7B2B832F829536
S11310D08370813029F18230F1F080E090E0DC010E
S11310E0482B592B6A2B7B2BD1014D935D936D9328
S11310F07D931D01B6E32B16B1E03B0609F075CFD5
S11311007894EFEFF9E628E1E150F0402040E1F770
S113111000C000002ECC80E090E0ACE0B0E0E0CF76
S113112080E090E0A4E0B0E0DBCF40E050E861E094
S113113070E0C8CF40E050E860E070E0C3CF40E02A
S113114050E360E070E0AFCF40E050E160E070E079
S1131150AACF40E056E060E070E096CF40E052E075
S113116060E070E091CF40EC50E060E070E074CF5C
S113117040E450E060E070E06FCF8D819981A72F4B
S1131180B62F59CF8E2F9F2DD80155CFEBE0F12CE0
S113119000E010E083E090E0A0E0B0E06BE16D835C
S11311A0198270E060E03BCFE9E0F12C00E010E050
S11311B081E090E0A0E0B0E049E14D83198270E065
S11311C060E02DCF85E090E04BED50E060E070E012
S11311D040931E0150931F016093200170932101DD
S11311E0FFEF27E833E1F15020403040E1F700C041
S11311F0000010921E0110921F0110922001109203
S11312002101AFEFB7E8E3E1A150B040E040E1F7DE
S113121000C000000197E1F689B18F3F09F497CD32
S113122099CD85E090E049E450E060E070E04093BF
S11312301E0150931F016093200170932101FFEF61
S113124027E833E1F15020403040E1F700C00000CE
S113125010921E0110921F01109220011092210180
S1131260AFEFB7E8E3E1A150B040E040E1F700C0E0
S113127000000197E1F689B18F3F09F468CD6ACD8A
S1071280F894FFCF0C
S10F12844992040092240900244912003D
S9030000FC
